:100000000C942A000C9447000C9447000C94470071
:100010000C9447000C9447000C9447000C94470044
:100020000C9447000C9447000C9447000C94F0018A
:100030000C9447000C9447000C9447000C94470024
:100040000C9447000C9447000C9447000C94470014
:100050000C94470011241FBECFE5D4E0DEBFCDBF16
:1000600010E0A8E6B0E001C01D92AA36B107E1F7A2
:1000700010E0A0E6B0E0ECEBF0E102C005900D92DC
:10008000A836B107D9F70E947B020C945C080C9447
:100090000000DF93CF93CDB7DEB788E390E022E492
:1000A000FC012083CF91DF910895DF93CF93CDB7EB
:1000B000DEB788E390E021E2FC012083CF91DF915D
:1000C0000895DF93CF93CDB7DEB788E390E021E4C6
:1000D000FC012083CF91DF910895DF93CF93CDB7BB
:1000E000DEB788E390E022E2FC012083CF91DF912C
:1000F0000895DF93CF93CDB7DEB781E090E0909382
:1001000069008093680088E390E0FC011082CF9141
:10011000DF9108950F931F93DF93CF93CDB7DEB791
:100120002E970FB6F894DEBF0FBECDBF809168004A
:1001300090916900009709F095C08AE490E0FC0175
:1001400080819181F9E08E329F0760F48AE490E02B
:100150002AE430E0F901208131812C593F4FFC0124
:100160003183208380E090E0A8E4B2E489839A831D
:10017000AB83BC8369817A818B819C8120E030E0F4
:100180004AE753E40E94B904DC01CB018D839E83CE
:10019000AF83B88711E06D817E818F81988520E0E3
:1001A00030E040E85FE30E94130688230CF010E083
:1001B000112329F081E090E09A87898746C011E0F9
:1001C0006D817E818F81988520E03FEF4FE757E476
:1001D0000E94B30518160CF010E0112361F169813B
:1001E0007A818B819C8120E030E040E251E40E94E2
:1001F000B904DC01CB01BC01CD010E94E502DC01A8
:10020000CB019A87898712C089E190E09C878B8710
:100210008B859C858C01C8010197F1F78C011C87A7
:100220000B8789859A8501979A87898789859A8519
:10023000009751F717C06D817E818F8198850E944C
:10024000E502DC01CB019A87898789859A859E879B
:100250008D878D859E858C01F8013197F1F78F018F
:100260001E870D872E960FB6F894DEBF0FBECDBF4A
:10027000CF91DF911F910F9108950F931F93DF93FB
:10028000CF93CDB7DEB72E970FB6F894DEBF0FBE73
:10029000CDBF8091680090916900009709F095C0EA
:1002A0008AE490E0FC0180819181F3E08F339F0725
:1002B00060F08AE490E02AE430E0F90120813181A5
:1002C00024563040FC013183208380E090E0A8E494
:1002D000B2E489839A83AB83BC8369817A818B8101
:1002E0009C8120E030E04AE753E40E94B904DC013D
:1002F000CB018D839E83AF83B88711E06D817E81B2
:100300008F81988520E030E040E85FE30E9413068B
:1003100088230CF010E0112329F081E090E09A8707
:10032000898746C011E06D817E818F81988520E0AC
:100330003FEF4FE757E40E94B30518160CF010E0AA
:10034000112361F169817A818B819C8120E030E009
:1003500040E251E40E94B904DC01CB01BC01CD01B3
:100360000E94E502DC01CB019A87898712C089E1EE
:1003700090E09C878B878B859C858C01C8010197B9
:10038000F1F78C011C870B8789859A8501979A87DD
:10039000898789859A85009751F717C06D817E817D
:1003A0008F8198850E94E502DC01CB019A878987BD
:1003B00089859A859E878D878D859E858C01F8011C
:1003C0003197F1F78F011E870D872E960FB6F8949F
:1003D000DEBF0FBECDBFCF91DF911F910F9108956A
:1003E0001F920F920FB60F9211242F933F934F93AA
:1003F0005F936F937F938F939F93AF93BF93EF938D
:10040000FF93DF93CF930F92CDB7DEB78CE290E0EE
:10041000FC01808189838981882F90E08038910553
:10042000B9F08138910554F48230910569F18C302E
:100430009105B1F1009709F43FC045C08C38910592
:10044000A9F08E389105C9F08238910541F03BC082
:100450000E9449008BE390E0FC01108238C00E94AA
:1004600061008BE390E0FC01108231C00E945500D6
:100470008BE390E0FC0110822AC00E946D008BE3A8
:1004800090E0FC01108223C0109269001092680075
:100490000E948A008BE390E02FEFFC01208317C0BD
:1004A00010926900109268000E943D018BE390E079
:1004B0002FEFFC0120830BC00E9479008BE390E0BA
:1004C000FC01108204C08BE390E0FC0110820F90CD
:1004D000CF91DF91FF91EF91BF91AF919F918F915C
:1004E0007F916F915F914F913F912F910F900FBE30
:1004F0000F901F901895DF93CF93CDB7DEB78AE3A7
:1005000090E02FEFFC01208387E390E02FEFFC01C8
:1005100020838BE390E0FC01108288E390E0FC01F3
:1005200010828AE290E02AE230E0F901208128611D
:10053000FC01208380E490E020E430E0F901208198
:100540002660FC01208389E290E023E0FC01208307
:1005500080E490E0FC0110828AE290E02AE230E040
:10056000F90120812068FC01208381E390E02FEFD6
:10057000FC0120838FE490E02FE430E0F90120813A
:100580002268FC0120838EE490E02EE430E0F90143
:1005900020812861FC0120838EE490E02EE430E08D
:1005A000F90120812160FC01208386E490E020E2B3
:1005B0003EE4FC01318320838AE490E02EE239E0BE
:1005C000FC01318320837894FFCFEF92FF920F9349
:1005D0001F937B018C0120E030E040E05FE40E944B
:1005E000E30587FD11C0C801B70120E030E040E01D
:1005F0005FE40E9488040E9443069B01AC012050E6
:1006000030404040504806C0C801B7010E94430630
:100610009B01AC01B901CA011F910F91FF90EF90AE
:100620000895A0E0B0E0E7E1F3E00C942908FC01B4
:10063000EA018081823008F438C1DB019C9192305C
:1006400008F430C1843059F4943009F02EC19181FE
:1006500011968C911197981709F021C126C19430F9
:1006600009F420C19230B1F4823009F01EC1CA01F0
:10067000AF0128E0DA010D90AD01DC010D92CD0152
:100680002150C1F7DB0111968C911197918189233B
:1006900089830AC1823009F405C1C280D380DB019D
:1006A00012966D907C9013972481358146815781F5
:1006B0001496ED90FD900D911C911797C601861927
:1006C00097095C0197FF04C0AA24BB24A81AB90AA1
:1006D000B0E2AB16B1040CF061C0181619066CF547
:1006E000370148010A2C04C0969487947794679444
:1006F0000A94D2F781E090E0A0E0B0E00A2C04C0B8
:10070000880F991FAA1FBB1F0A94D2F70197A1094E
:10071000B1098E219F21A023B123EE24FF2487015C
:10072000E3940097A105B10519F4EE24FF24870195
:10073000E628F728082919293CC00097D1F1CA0CEE
:10074000DB1C39014A010A2C04C0969487947794E3
:1007500067940A94D2F781E090E0A0E0B0E00A2C20
:1007600004C0880F991FAA1FBB1F0A94D2F70197D4
:10077000A109B10982239323A423B52321E030E00A
:1007800040E050E00097A105B10519F420E030E009
:10079000A90126293729482959290BC06C147D0441
:1007A00024F4EE24FF24870104C0630120E030E03C
:1007B000A9018181FB019181891709F445C0882332
:1007C00049F0D801C701821B930BA40BB50B9C0108
:1007D000AD0104C02E193F09400B510B57FD04C059
:1007E0001982DB82CA820BC081E08983DB82CA82E4
:1007F00050954095309521953F4F4F4F5F4F2C833B
:100800003D834E835F830DC0880F991FAA1FBB1FB6
:100810008C839D83AE83BF838A819B8101979B8359
:100820008A838C819D81AE81BF819C01AD01215065
:100830003040404050402F3FEFEF3E07EFEF4E0774
:10084000EFE35E0708F30BC08983DB82CA822E0DBB
:100850003F1D401F511F2C833D834E835F8383E0E8
:1008600088832C813D814E815F8157FF1DC0DA0155
:10087000C90181709070A070B070569547953795FA
:100880002795822B932BA42BB52B8C839D83AE8332
:10089000BF838A819B8101969B838A8305C0E0E6A2
:1008A000F0E003C0FB0101C0FE01CF01CDB7DEB710
:1008B000EEE00C944508A0E2B0E0E1E6F4E00C9430
:1008C000310869837A838B839C832D833E834F8396
:1008D000588789E0E82EF12CEC0EFD1ECE01019622
:1008E000B7010E9463078E010F5E1F4FCE01059670
:1008F000B8010E946307C701B801AE01475E5F4FB0
:100900000E9411030E949506A096E6E00C944D0803
:10091000A0E2B0E0EEE8F4E00C94310869837A8359
:100920008B839C832D833E834F8358878E01075F83
:100930001F4FCE010196B8010E94630791E1E92E95
:10094000F12CEC0EFD1ECE010596B7010E94630747
:100950008A8991E089278A8BC801B701AE01475E79
:100960005F4F0E9411030E949506A096E6E00C944A
:100970004D08A0E2B0E0EFEBF4E00C9425086983A9
:100980007A838B839C832D833E834F835887CE014C
:100990000196BE01675F7F4F0E946307CE010596F7
:1009A000BE016F5E7F4F0E9463079985923078F099
:1009B00089898230C0F0943019F4823041F4CBC080
:1009C000843019F4923079F4C6C0923051F481E049
:1009D0002A859A89291709F480E08A87CE01099629
:1009E000BCC0823051F481E02A859A89291709F424
:1009F00080E08A8BCE014196B0C06D847E848F8466
:100A00009888ED88FE880F89188DE0E2F0E080E09C
:100A100090E0DC01AA24BB24650120E030E0A901BC
:100A2000B3016170707061157105D1F02E0D3F1D1D
:100A3000401F511F15012601280E391E4A1E5B1E3C
:100A400081E090E0A0E0B0E02E153F05400751079F
:100A500018F080E090E0DC01820D931DA41DB51D0F
:100A6000AA0CBB1CCC1CDD1C17FF09C061E0262EA4
:100A7000312C412C512CA228B328C428D5283197D9
:100A800049F0EE0CFF1C001F111F96948794779479
:100A90006794C6CF6B897C89EB85FC856E0F7F1FC1
:100AA0006E5F7F4F7C8F6B8F61E0EA857A89E717F5
:100AB00009F460E06A8F6B8D7C8D10C0FC01E170E1
:100AC000F070309729F056954795379527955068DF
:100AD000B695A795979587956F5F7F4FB7FDEECF3A
:100AE0000CC0880F991FAA1FBB1F57FD8160220FE2
:100AF000331F441F551F615070408030E0E09E0757
:100B0000E0E0AE07E0E4BE0760F36B8F7C8F6FE739
:100B1000E62EF12C012D112DE822F9220A231B23A8
:100B200060E4E616F1040105110561F487FD0AC0D1
:100B3000211531054105510529F0805C9F4FAF4FCC
:100B4000BF4F80788D8F9E8FAF8FB8A383E0898F42
:100B5000CE01499602C080E690E00E949506A096DC
:100B6000E2E10C944108A8E1B0E0E9EBF5E00C9477
:100B7000310869837A838B839C832D833E834F83E3
:100B800058878E01075F1F4FCE010196B8010E9462
:100B9000630781E1E82EF12CEC0EFD1ECE010596D7
:100BA000B7010E9463078985823040F089898230CD
:100BB00028F0C801B7010E94CC0701C08FEF6896EA
:100BC000E6E00C944D08A8E1B0E0E9EEF5E00C9405
:100BD000310869837A838B839C832D833E834F8383
:100BE00058878E01075F1F4FCE010196B8010E9402
:100BF000630781E1E82EF12CEC0EFD1ECE01059677
:100C0000B7010E9463078985823040F0898982306C
:100C100028F0C801B7010E94CC0701C08FEF689689
:100C2000E6E00C944D08A8E1B0E0E9E1F6E00C94B0
:100C3000310869837A838B839C832D833E834F8322
:100C400058878E01075F1F4FCE010196B8010E94A1
:100C5000630781E1E82EF12CEC0EFD1ECE01059616
:100C6000B7010E9463078985823040F0898982300C
:100C700028F0C801B7010E94CC0701C081E0689646
:100C8000E6E00C944D08ACE0B0E0E9E4F6E00C944A
:100C9000350869837A838B839C83CE010196BE01DC
:100CA0006B5F7F4F0E9463078D81823081F18230BC
:100CB00070F1843021F48E81882369F10AC02F817C
:100CC000388537FD24C06E812F3131053CF0662315
:100CD00011F120E030E040E050E821C08EE190E0EA
:100CE000821B930B29853A854B855C8504C05695FC
:100CF0004795379527958A95D2F7662381F05095C9
:100D00004095309521953F4F4F4F5F4F08C020E0F1
:100D100030E0A90104C02FEF3FEF4FEF5FE7B901CB
:100D2000CA012C96E2E00C945108EF92FF920F93C7
:100D30001F93CF93DF93FC01248135814681578136
:100D400061818081823020F44061EFEFF0E0A3C048
:100D5000843009F49BC0823009F492C0211531051A
:100D60004105510509F48FC00280F381E02D8FEF1A
:100D7000E238F8070CF05AC0C2E8DFEFCE1BDF0BF9
:100D8000CA31D1056CF579018A010C2E04C0169583
:100D90000795F794E7940A94D2F781E090E0A0E0F9
:100DA000B0E00C2E04C0880F991FAA1FBB1F0A9425
:100DB000D2F70197A109B10982239323A423B52374
:100DC00021E030E040E050E00097A105B10519F4C2
:100DD00020E030E0A9012E293F29402B512B03C0F0
:100DE00020E030E0A901DA01C9018F779070A0708E
:100DF000B07080349105A105B10539F427FF09C011
:100E0000205C3F4F4F4F5F4F04C0215C3F4F4F4F1F
:100E10005F4FE1E0F0E0203080E0380780E04807F5
:100E200080E4580728F5E0E0F0E022C0E038F10562
:100E30006CF5E158FF4FDA01C9018F779070A0700F
:100E4000B07080349105A105B10539F427FF09C0C0
:100E5000205C3F4F4F4F5F4F04C0215C3F4F4F4FCF
:100E60005F4F57FF05C056954795379527953196A3
:100E700087E056954795379527958A95D1F70BC00A
:100E8000E0E0F0E005C0E0E0F0E005C0EFEFF0E00A
:100E900020E030E0A9018E2F879588278795942F31
:100EA0009F77679566276795E695E22EA92FA82B71
:100EB000FE2FF62B622F732F8A2F9F2FCDB7DEB711
:100EC000E6E00C944D08DC01FB012C9111963C915D
:100ED000119712968C911297482F4F7750E0982FC8
:100EE000991F9927991F13966C911397862F880F36
:100EF000892B90E0661F6627661F6183009739F58E
:100F0000211531054105510511F482E029C082E81F
:100F10009FEF9383828367E0220F331F441F551F87
:100F20006A95D1F783E0808309C0220F331F441FE5
:100F3000551F82819381019793838283203080E0C3
:100F4000380780E0480780E4580778F320C08F3FD7
:100F5000910579F4211531054105510519F484E015
:100F60008083089544FF03C081E0808310C0108215
:100F70000EC08F5790409383828383E0808387E005
:100F8000220F331F441F551F8A95D1F750642483C5
:100F90003583468357830895FC01DB0190819230AD
:100FA00008F449C08C91823008F445C0943051F463
:100FB00061818430B1F511962C91119730E0261B98
:100FC000310941C0843021F0923041F48230B1F1D6
:100FD00011968C9111978823A1F12DC061818230E7
:100FE00001F111968C9111976817D9F42281338100
:100FF00012968D919C9113978217930794F028175E
:101000003907BCF0248135814681578114968D9132
:101010009D910D90BC91A02D82179307A407B50751
:1010200018F4662341F00DC0281739074A075B07FB
:1010300028F4662331F021E030E005C020E030E004
:1010400002C02FEF3FEFC90108952F923F924F92B8
:101050005F926F927F928F929F92AF92BF92CF9248
:10106000DF92EF92FF920F931F93CF93DF93CDB751
:10107000DEB7CA1BDB0B0FB6F894DEBF0FBECDBFC9
:1010800009942A88398848885F846E847D848C849A
:101090009B84AA84B984C884DF80EE80FD800C81A3
:1010A0001B81AA81B981CE0FD11D0FB6F894DEBF86
:0C10B0000FBECDBFED010895F894FFCFF6
:0810BC0000000000000000002C
:00000001FF
